:020000040800F2
:10000000A0090020350200087B2A00081F250008EF
:10001000792A000823060008373500080000000090
:10002000000000000000000000000000292C000873
:1000300025060008000000007D2A00082B2C00087F
:100040004F0200084F0200084F0200084F0200084C
:100050004F0200084F0200084F0200084F0200083C
:100060004F0200084F0200084F0200084F0200082C
:100070004F0200084F0200084F0200084F0200081C
:100080004F0200084F0200084F0200084F0200080C
:100090004F0200084F0200084F0200084F020008FC
:1000A0004F0200084F0200084F020008CD2C000844
:1000B0004F02000800000000000000002125000899
:1000C0004F02000800000000000000004F0200087E
:1000D000000000004F0200084F020008000000006E
:1000E0004F0200084F02000800000000000000005E
:1000F0000000000000000000000000000000000000
:100100000000000000000000000000004F02000896
:1001100000000000000000004F0200084F0200082D
:100120004F0200084F0200084F0200084F0200086B
:100130004F02000800000000000000000000000066
:100140004F0200084F0200084F0200084F0200084B
:100150004F0200084F0200084F0200084F0200083B
:100160004F0200084F0200084F0200080000000084
:100170004F0200084F0200080000000000000000CD
:100180004F0200084F0200084F02000800F002F87A
:1001900000F041F80AA090E8000C82448344AAF1E0
:1001A0000107DA4501D100F036F8AFF2090EBAE8DE
:1001B0000F0013F0010F18BFFB1A43F0010318479B
:1001C0005039000070390000103A24BF78C878C157
:1001D000FAD8520724BF30C830C144BF04680C604D
:1001E000704700000023002400250026103A28BF95
:1001F00078C1FBD8520728BF30C148BF0B60704799
:10020000642900F0F780002070471FB503F056FC0A
:100210001FBD10B510BD00F0CAF91146FFF7F5FF7C
:1002200003F09AF900F0E8F903B4FFF7F2FF03BC1A
:1002300000F0F0F90948804709480047FEE7FEE76B
:10024000FEE7FEE7FEE7FEE7FEE7FEE7FEE7FEE786
:1002500004480549054A064B70470000BD2C0008BC
:100260008D010008A0030020A0090020A0050020A7
:10027000A005002053EA020C00F069802DE9F04B44
:100280004FF00006002B1FBFB3FA83F503FA05F405
:1002900024FA05F65E4012BF1643B2FA82F502FA5E
:1002A00005F4C5F120051EBF22FA05FC44EA0C0442
:1002B000203556EA044C4FEA144418BF641C4FF032
:1002C00000084FF00009904271EB030C39D300296C
:1002D00019BFB1FA81F701FA07F6B0FA80F700FA10
:1002E00007F6C7F120071EBF20FA07FC46EA0C06F6
:1002F0002037B6FBF4FCA7EB0507103F07F01F0BF8
:10030000CBF120060CFA0BFB2CFA06F644BFB346E1
:100310000026202FA4BF5E464FF0000B5BEA060CC0
:1003200008BF4FF0010B19EB0B09ABFB027C48EB4C
:100330000608C01B06FB02CC0BFB03CC71EB0C01C7
:10034000C1E70B46024641464846BDE8F08B13B56F
:100350004FF000004FF00001AFF30080BDE81C40FB
:10036000704700000FB41CB5074B06AA7B446946D2
:100370000090059800F003F90020694600F012F99A
:100380001CBC5DF814FB0000350200002DE9F041B3
:100390000E460446002020622046E168884730B3BC
:1003A000252805D0D4E901219047206A401CF2E7B6
:1003B000E168204600278847050018D0A5F14100D4
:1003C000192802D820354FF40067324629462046C6
:1003D0002760FFF715FF40B1012804D0F61D26F075
:1003E00007060836D8E7361DD6E72846DAE7206A3A
:1003F000BDE8F0812DE9F04106460024106875291A
:10040000314616A510D0AFF30080002802DA404232
:1004100013A507E031688A0701D512A502E0490754
:1004200004D511A5012401E0AFF3008000210A22C8
:1004300006F1240709E0B0FBF2FCB0FBF2F302FB8B
:100440001C00303078541846491C0028F3D123464C
:100450002A463046BDE8F04100F032B80000000006
:100460002D0000002B000000200000004FF00002D3
:1004700000B5134694469646203922BFA0E80C509A
:10048000A0E80C50B1F12001BFF4F7AF090728BF75
:10049000A0E80C5048BF0CC05DF804EB890028BFF1
:1004A00040F8042B08BF704748BF20F8022B11F01A
:1004B000804F18BF00F8012B704770477047704796
:1004C0002DE9F0470D4699469246044600F124086E
:1004D0000168880604D5E06921F01001216000E080
:1004E0000120A84201DD471B00E00027A1697A191D
:1004F00002EB0900081AA0612078C00602D4204649
:10050000AFF30080002608E0D4E901211AF80600C4
:100510009047206A401C761C20624E45F4DB207810
:10052000C0060AD52046AFF3008006E0D4E90121D9
:1005300030209047206A401C2062381EA7F1010736
:10054000F4DC07E0D4E9012118F805009047206A9F
:10055000401C2062281EA5F10105F3DC2046AFF304
:1005600000802078000602D50220BDE8F087012037
:10057000FBE7000001694A1C02610878704700B57A
:100580008FB0CDE901310021059105497944CDE9CC
:10059000031011466846FFF7F9FE0FB000BD0000DA
:1005A000E5FFFFFF0A6802F8010B0A607047754615
:1005B00000F02CF8AE4605006946534620F00700CF
:1005C000854618B020B5FFF743FEBDE820404FF048
:1005D00000064FF000074FF000084FF0000B21F02D
:1005E0000701AC46ACE8C009ACE8C009ACE8C009FA
:1005F000ACE8C0098D46704710B50446AFF30080E3
:100600002046BDE81040FFF70FBE000000487047CD
:100610004003002001491820ABBEFEE7260002007F
:100620007047FEE7704772B6FEE7000070B50446FB
:1006300000F01CF90546601C02D004480078044410
:1006400000F014F9401BA042FAD370BD3000002026
:100650002DE9F04FDFF8E091002301270326A9F1EF
:10066000040B85B00F2509F1040AABF1040EDBE0A1
:1006700007FA03FC12EA0C027ED00C7904F00304A2
:10068000012C01D0022C20D1846800945C0006FA71
:1006900004F80494009C24EA08040094D1F80C8027
:1006A000049C08FA04F8009C48EA0408C0F8088092
:1006B000446824EA0C0491F804C0CCF3001C0CFA42
:1006C00003FC4CEA040CC0F804C00C79E443A40712
:1006D0000DD0D0F80CC04FEA430806FA08F42CEA13
:1006E000040C8C6804FA08F444EA0C04C4600C7925
:1006F00004F00304022C19D1DC0800EB84040294FA
:10070000246A4FEA437C4FEADC6CCDF810C005FA4E
:100710000CFC24EA0C04D1F81080DDF810C008FAB3
:100720000CF848EA0408029CC4F8208004684FEAE8
:10073000430806FA08FC24EA0C0491F804C00CF003
:10074000030C0CFA08FC4CEA040CC0F800C04C681E
:1007500014F4403F67D0394CD4F860C04CF0010C21
:10076000C4F860C0246E23F0030C04F0010400946C
:10077000334C6444029400E055E0A4684FEA837C63
:100780004FEA1C7805FA08FC24EA0C04B0F1904FFB
:1007900006D0DFF8B0C0604505D14FF0010C0BE08A
:1007A0004FF0000C08E0DFF8A0C0604502D14FF028
:1007B000020C01E04FF0070C0CFA08FC4CEA040CA8
:1007C000029CC4F808C0D9F80040CC46D1F8048097
:1007D00094435FEAC82800D51443CCF80040DAF807
:1007E0000040D446D1F8048094435FEA882800D5BD
:1007F0001443CCF80040DBF80040DC46D1F804801C
:1008000094435FEA883800D51443CCF80040DEF802
:100810000040F446D1F8048094435FEAC83800D51C
:100820001443CCF800405B1C0C682246DC407FF48B
:100830001FAF05B000F00AB80804014000100240E4
:1008400000000140000400480008004830BCBDE83A
:10085000C08F426921EA02030A4043EA02418161F2
:1008600070470AB1816170478162704701488068B2
:10087000704700003000002090F84120202A24D149
:1008800090F84020012A20D0012280F84020242224
:1008900080F841200268136823F0010313600268A6
:1008A000136823F480531360026813680B431360CA
:1008B00001680A6842F001020A60202180F84110B4
:1008C000002180F84010084670470220704790F8D9
:1008D0004120202A22D190F84020012A1ED0012256
:1008E00080F84020242280F841200268136823F019
:1008F000010313600268136823F4706343EA012163
:10090000116001680A6842F001020A60202180F843
:100910004110002180F840100846704702207047BF
:10092000026891691268436B002B00D0184770472A
:1009300070B5040004D094F84100002510B106E021
:10094000012070BD84F84050204600F00FFA2420AA
:1009500084F841002068016821F0010101606068AD
:10096000216820F0706008612068816821F40041EE
:100970008160E0680128A06807D040F40440216845
:100980008860E068022803D006E040F40040F6E703
:1009900021684FF40060486020684168114A1143A3
:1009A00041602068C16821F40041C160D4E90401BC
:1009B0000843A16940EA01202168C860D4E9070121
:1009C0000843216808602068016841F00101016066
:1009D0006564202084F84100256384F8425000209B
:1009E00070BD0000008000022DE9FC47002604468F
:1009F000019690F841001F469246894620287ED1F4
:100A000020688069C043000479D594F8400001282B
:100A100075D0012084F84000242084F841006664E9
:100A20004FF02008E068012809D029F4544040F430
:100A3000205021684860FFF719FF05460DE0314955
:100A400049EA010030490840F3E7781C05D0FFF778
:100A50000DFF401BB84219D8C7B121688869896960
:100A6000C0F34010C1F300110843EED02068806944
:100A70003B46C043C0064FF000024FF02001204625
:100A8000009517D501F00CFE68BB09E084F84180A1
:100A900054F8440F40F0200044F80409267022E086
:100AA0002168C1F81C8084F8418084F840600020EF
:100AB00000F02CB801F0F4FDA8B921681020C8613D
:100AC0002168C1F81C800198504512D12068416806
:100AD00041F4804141603B460022202120460095A0
:100AE00001F0DEFD10B10120E2E708E02168C1F865
:100AF0001C800198401C0190504593D3C6E702200A
:100B0000D6E7000000200002FF2300020CBCBDE875
:100B1000F08700002DE9F84F044690F84100DDF819
:100B200028A01F4690468B4620287ED194F840008E
:100B300001287AD0012084F84000FFF797FE06468E
:100B4000012200901923D103204601F0A9FDE0BB4A
:100B5000222084F84100102084F8420000256564BA
:100B6000C4F8248067856563618D3148FF274FF0A5
:100B700080784FF00079FF2903D927853A46009005
:100B800039E0618D218500903AE05946204601F018
:100B90006FFD13E001F0B0FDB8B92068406A616AEA
:100BA0000870606A401C6062208D401E80B2208503
:100BB000618D491E6185618D01B168B1608D3246DC
:100BC000002851462046E5D100E002E001F0E2FDB8
:100BD000D0B1012000F030B85346002280212046D9
:100BE000009601F05DFD0028F3D1608DFF2804D947
:100BF00027853A4600954346C7E7608D20850095D6
:100C000094F828204B46C0E721682020C86121685D
:100C10004A68084B1A404A6084F8410084F8425000
:100C200084F840500020D5E7FFE70220D2E700001B
:100C30000024008000E800FE18BCBDE8E08F000042
:100C40002DE9F84F044690F84100DDF828A01F4632
:100C500090468B4620287ED194F8400001287AD017
:100C6000012084F84000FFF701FE064601220090B3
:100C70001923D103204601F013FDE0BB212084F8A5
:100C80004100102084F8420000256564C4F82480E7
:100C900067856563618D3148FF274FF080784FF09D
:100CA0000079FF2903D927853A46009039E0618D04
:100CB000218500903AE05946204601F0D9FC13E026
:100CC00001F08EFDB8B9606A216800788862606AB8
:100CD000401C6062608D401E6085208D401E80B289
:100CE0002085618D01B168B1608D32460028514682
:100CF0002046E5D100E002E001F04CFDD0B101203A
:100D000000F030B85346002280212046009601F0C2
:100D1000C7FC0028F3D1608DFF2804D927853A4607
:100D200000954346C7E7608D2085009594F82820FC
:100D30004B46C0E721682020C86121684A68084BFB
:100D40001A404A6084F8410084F8425084F84050C8
:100D50000020D5E7FFE70220D2E700000020008056
:100D600000E800FE18BCBDE8E08F000030B59BB085
:100D70000446142115A8FFF779FB54216846FFF7B4
:100D800075FB1C492068884231D140200025009025
:100D90000B95684600F00EF908B1FFF744FC164CBD
:100DA000E06C40F00100E064E06C15A900F0010087
:100DB0001A904FF4C06015901220CDE9160503205B
:100DC0001890042019904FF09040FFF741FCA06D5F
:100DD00040F40010A065A06D002200F400101A90ED
:100DE00011461F2000F068F81F2000F057F81BB0D4
:100DF00030BD0000005400400010024002488168ED
:100E000002781144816070473000002010B5002442
:100E1000032000F071F8002000F008F808B1012468
:100E200001E000F025F8204610BD000070B50E4E20
:100E300005460024307898B14FF47A71B1FBF0F098
:100E40000A490968B1FBF0F000F0C2FD40B9102D6D
:100E500006D200222946501E00F02EF8756000E0F0
:100E60000124204670BD0000300000203C0000201E
:100E7000094808B5016E41F001010166016E01F0FB
:100E800001010091816D41F080518165806D00F01C
:100E90008050009008BD000000100240002809DBCF
:100EA00000F01F02012191404009800000F1E02084
:100EB000C0F8001170470000F0B40E4B1B680C46E0
:100EC000C3F30223C3F10705042D00D90425191D1E
:100ED000072901D2002300E0DB1E012606FA05F1F6
:100EE000491E214099409E40761E16403143F0BC79
:100EF00002F022BB0CED00E0064900F00702086892
:100F00004FF6FF03184040EA0220034A10430860EE
:100F1000704700000CED00E00000FA051649B0F53E
:100F2000007F0868C0F3412009D0022805D0086876
:100F300020F4C06040F48060086000207047012801
:100F4000FBD0086820F4C06040F4007008600B48D3
:100F50003222006850430A4AB0FBF2F0401C00E025
:100F6000401E4A69520501D50028F9D1486940055B
:100F7000E3D5032070470000007000403C000020D3
:100F800040420F000248006800F4C0607047000053
:100F9000007000400248016841F4807101607047B0
:100FA000007000400248016841F004010160704790
:100FB000001002402DE9F84F0446002700889C4DA0
:100FC0003E46000515D5E06B60B1B0F5000F04D0CA
:100FD000B0F5400F2BD001270AE0E86840F48030DC
:100FE000E86024E00021201D01F04AFD07001ED02A
:100FF0003E462068800338D5A86D4FF00008C00039
:1010000009D4A86D40F08050A865A86D4FF0010884
:1010100000F080500090DFF81CA2DAF8001041F4D4
:101020008071CAF80010FFF721FC814610E0D5F866
:101030008800E16B20F440000843C5F88800D8E739
:10104000FFF714FCA0EB0900022801D9032704E0F4
:10105000DAF80000C005F3D5EFB33E46B8F1000F53
:1010600003D0A86D20F08050A8652078C00707D075
:10107000D5F88800216A20F003000843C5F88800ED
:101080002078800707D5D5F88800616A20F00C0029
:101090000843C5F888002078800607D5D5F8880071
:1010A000A16A20F440600843C5F8880020888005C4
:1010B00007D5D5F88800616B20F440200843C5F8B7
:1010C00088002088400509D5D5F88800A16B20F458
:1010D0004010084300E02EE0C5F888002078400664
:1010E00007D5D5F88800E16A20F440500843C5F8D8
:1010F00088002088C00507D5D5F88800216B20F42A
:1011000040300843C5F8880020884FF0006780040D
:101110004FF080684ED5D5F88800216C20F04060F3
:101120000843C5F88800206CB8423BD1E86840F419
:101130008010E8603EE0D5F8900010F4407014D0C4
:10114000216D814211D0D5F89000D5F8901020F48F
:10115000407041F48031C5F89010D5F8901021F41A
:101160008031C5F89010C5F89000C00711D0FFF786
:101170007DFB074641F2883907E000BFFFF776FBA9
:10118000C11B494501D9032668E7D5F890008007BF
:10119000F4D5D5F89000216D20F440700843C5F8CF
:1011A00090005BE7404505D10121201D01F068FC5E
:1011B00000B106462068400317D5D5F88800616C59
:1011C00020F040600843C5F88800606CB84204D144
:1011D000E86840F48010E86007E0404505D101214F
:1011E000201D01F04DFC00B106462088400411D5B9
:1011F000D5F88800A16C20F040500843C5F888005D
:10120000A06CB0F1805F05D10221201D01F038FCF7
:1012100000B106462088000406D555F8880FE16C19
:1012200020F0804008432860304600F005B80000F8
:10123000001002400070004018BCBDE8E08F0000C4
:101240002DE9F0470F4605006BD0494E306800F09D
:101250000700B84209D2306820F0070038433060F8
:10126000306800F00700B8425BD12878414C800715
:101270000AD5A868A16801F0F001884204D9A168E4
:1012800021F0F0010143A1602878C0072CD06868E4
:10129000032811D0022812D0216898B149050029ED
:1012A0003FDAA16821F003010143A160FFF7DEFAF4
:1012B000804641F2883910E021688901EFE7216812
:1012C0008903ECE78907EAE7FFF7D0FAA0EB08010A
:1012D000494502D90320BDE8F087A068696800F09D
:1012E0000C00B0EB810FEFD1287880070AD5A868F1
:1012F000A16801F0F001884204D2A16821F0F00158
:101300000143A160306800F00700B8420BD9306893
:1013100020F0070038433060306800F00700B84222
:1013200001D00120D7E72878400705D5A068E968F3
:1013300020F4E0600843A0602878000706D5A06884
:10134000296920F4605040EAC100A06000F03EF836
:10135000A168094AC1F30311515C01F01F01C840A3
:101360000649086006480068BDE8F047FFF75EBD23
:101370000020024000100240C83A00083C00002053
:10138000340000200548064900688968054AC1F311
:101390000221515C01F01F01C84070473C00002051
:1013A00000100240083B00080548064900688968AB
:1013B000054AC1F3C221515C01F01F01C8407047CA
:1013C0003C00002000100240083B000870B5254991
:1013D000002318468A68CC6812F00C0204F0030659
:1013E000214C4FEA640509D00C2A05D0042A32D0DA
:1013F000082A00D1284670BD012E10D10B681B07AA
:1014000004D4D1F89430C3F3032302E00B68C3F390
:101410000313164E56F82330DAB10C2AEBD1C86804
:1014200000F00300022818D0032818D01846CA6814
:10143000CB68C2F30212C3F306234343521CB3FB2F
:10144000F2F2C868C0F34160401C4000B2FBF0F00B
:1014500070BD184670BD204670BD2046E7E728469F
:10146000E5E70000001002400024F400D83A00082C
:101470002DE9F84304006FD0FA4DA86800F00C067F
:10148000E86800F003072078C00664D576B10C2E1A
:1014900001D1012F0AD0A069002828687AD040F035
:1014A00001002860FFF7E2F980465DE028688007C8
:1014B00002D5A0690028DED0216A2868000703D57C
:1014C000286800F0F00004E0D5F89400F02202EA69
:1014D0001010814216D9084601F068FB00283BD164
:1014E000286840F0080028602868216A20F0F00091
:1014F000084328606868E16920F47F4040EA0120E1
:10150000686016E0286840F0080028602868216AB2
:1015100020F0F000084328606868E16920F47F400B
:1015200040EA0120686026B9206A01F03FFB0028EC
:10153000D5D1FFF74BFFA968CB4AC1F30311515C2A
:1015400001F01F01C840C9490860C9480068FFF799
:101550006DFC00287ED12EE0CAE000BFFFF786F9BF
:10156000A0EB0800022876D828688007F6D52868FE
:1015700040F0080028602868216A20F0F000084345
:1015800028606868E16920F47F4040EA01206860D3
:1015900011E0FFE720F001002860FFF767F98046BF
:1015A00006E000BFFFF762F9A0EB08000228DAD8D6
:1015B00028688007F6D42078C00740D0082E18D0BD
:1015C0000C2E01D1032F14D06068B0F5803F17D0E6
:1015D000B0F5A02F286817D020F480302860286844
:1015E00020F4802028606068E0B1FFF73FF9804672
:1015F00014E02868800322D56068002878D01EE0B7
:10160000286840F48030EDE740F480202860F7E758
:10161000FFF72CF9A0EB08006428A4D82868800301
:10162000F6D50CE0FFF722F9804605E0FFF71EF93A
:10163000A0EB0800642896D828688003F6D42078A8
:1016400080073BD5042E11D00C2E01D1022F0DD0D6
:10165000E06801E0AAE1FFE0002828681ED040F41D
:1016600080702860FFF702F907460CE02868400503
:101670000CD5E0680028C1D008E000BFFFF7F6F8FD
:10168000C01B022893D828684005F7D56868217CDC
:1016900020F0F85040EA016068600FE020F48070AC
:1016A0002860FFF7E3F8074605E000BFFFF7DEF824
:1016B000C01B0228B1D828684005F7D4207800075D
:1016C00029D560690028D5F8940012D040F00100B7
:1016D000C5F89400FFF7CAF8074604E0FFF7C6F81C
:1016E000C01B022899D8D5F894008007F6D512E0DF
:1016F0002BE120F00100C5F89400FFF7B7F807468A
:1017000005E000BFFFF7B2F8C01B022885D8D5F866
:1017100094008007F6D42078400766D5A86D00278E
:10172000C00008D4A86D40F08050A865A86D0127BE
:1017300000F0805000904F480168C90512D401683C
:10174000814641F480710160FFF790F8804605E022
:10175000FFF78CF8A0EB080002287DD8D9F800002C
:10176000C005F5D5A068012816D00528D5F8900049
:1017700017D020F00100C5F89000D5F8900020F0B7
:10178000040000BFC5F89000A06841F28839C0B1DC
:10179000FFF76CF880460FE0D5F8900040F00100AC
:1017A000F0E740F00400C5F89000F5E7FFF75EF8B9
:1017B000A0EB080149454FD8D5F890008007F5D532
:1017C0000EE0FFF753F8804606E000BFFFF74EF843
:1017D000A0EB080149453FD8D5F890008007F5D423
:1017E0001FB1A86D20F08050A8652078800628D50C
:1017F000606A0028D5F8980012D040F00100C5F8C2
:101800009800FFF733F8074605E000BFFFF72EF812
:10181000C01B022820D8D5F898008007F6D510E024
:1018200020F00100C5F89800FFF720F8074604E013
:10183000FFF71CF8C01B02280ED8D5F898008007C7
:10184000F6D4A06AF0B3022816D00C2E7DD02868FA
:1018500020F08070286000E0A7E0FFF707F804465A
:10186000A6E0000000100240C83A00083C0000203A
:101870003400002000700040E868E26A00F00301D4
:10188000914228D1216B00F0700209011039914278
:1018900021D1626B00F4FE41B1EB022F1BD194F811
:1018A000382000F07841B1EBC26F14D1A18F00F461
:1018B000C00249084905A1F5001191420BD194F8E5
:1018C000401000E06AE04908490600F0C060A1F15C
:1018D000007181424BD00C2E73D02868400170D427
:1018E000286820F080702860FEF7C0FF064604E0FC
:1018F000FEF7BCFF801B022857D828688001F7D468
:10190000F4E90B016FF00F0202EB01110843218A89
:101910005204490802EB4151A26841EA02210843FE
:10192000217D4FF07E42490802EB41610843217B53
:1019300040EAC160E968244A11400843E860286829
:1019400040F080702860E86800E03AE040F0807085
:10195000E860FEF78BFF044605E000BFFEF786FF58
:10196000001B022821D828688001F7D527E02868C5
:10197000800124D4286840F080702860E86840F036
:101980008070E860FEF772FF044604E0FEF76EFF29
:10199000001B022809D828688001F7D50FE000BF96
:1019A000FEF764FF001B022802D90320BDE8F8837C
:1019B00028688001F4D4E86804490840E860002001
:1019C000F4E70120F2E700008C809D01FCFFEEFEB1
:1019D00010B5401EB0F1807F01D3012010BD4FF043
:1019E000E02460610F21601701F0A6FD0020A061D6
:1019F00007202061002010BD70477047704700002D
:101A0000F0B590F83C20012A29D0012480F83C4010
:101A1000022280F83D2003685A689D68114EB34247
:101A200003D122F470074A683A4322F070070A682B
:101A30003A435A600268B24205D0B2F1804F02D0F8
:101A4000094B9A4204D1896825F0800319439160BB
:101A500080F83D40002180F83C100846F0BD02208F
:101A6000F0BD0000002C01400040014010B5040012
:101A700003D094F83D0010B107E0012010BD002014
:101A800084F83C00204600F023F8022084F83D0052
:101A9000211D206801F070F9012084F8480084F8C5
:101AA0003E0084F83F0084F8400084F8410084F848
:101AB000420084F8430084F8440084F8450084F828
:101AC000460084F8470084F83D00002010BD000067
:101AD00010B586B0044614216846FEF7C7FC1C4AC0
:101AE00021681C48914227D1016E41F400610166D2
:101AF000016E01F400610591C16C41F00101C16406
:101B0000C06C694600F0010005909015009002201D
:101B10000190002002900390012004904FF090402B
:101B2000FEF796FD002211461B20FFF7C5F91B208A
:101B3000FFF7B4F906B010BDB1F1804FFAD1816D55
:101B400041F001018165806D00F001000590F1E731
:101B5000002C01400010024090F83D10012901D0F6
:101B600001207047022180F83D1000680B4988422F
:101B700005D0B0F1804F02D00949884207D1816871
:101B8000084A1140062906D0B1F5803F03D001680C
:101B900041F001010160002070470000002C01406D
:101BA000004001400700010070B5044690F83C0079
:101BB0000025012817D0012684F83C60022084F813
:101BC0003D00226890682F4B184020F47F409060C1
:101BD0000868502838D00DDC20284FD005DC90B3A1
:101BE000102811D14AE0022070BD302846D040288C
:101BF0000AD13BE060282FD070280DD0B0F5805F6F
:101C000003D0B0F5005F12D0012584F83D600020BC
:101C100084F83C00284670BDCB68D1E901212068DA
:101C200001F0EDF82068816841F0770109E0CB68A8
:101C3000D1E90121206801F0E2F82068816841F4CF
:101C400080418160E1E719E0CA684968206801F0D5
:101C500027FA5021206806E0CA684968206801F028
:101C600059FA6021206801F0D4F8CEE7CA684968C3
:101C7000206801F015FA40212068F4E72268014647
:101C80001046F0E788FFFEFF70472DE9F04105465A
:101C900090F83C0000260C46012810D0012085F861
:101CA0003C0072B1042A1CD0082A2CD00C2A50D037
:101CB0000126002085F83C003046BDE8F081022076
:101CC000FBE7D4E90012E368286801F0FBF9286813
:101CD000816921F00C01816128688169A268114342
:101CE0000FE0D4E90012E368286801F025FA2868BB
:101CF000816921F44061816128688169A26841EAB3
:101D000002218161D5E72868D4E9002C277B016A8C
:101D100021F480710162C169036A21F0030141EA83
:101D20000C0121F0F00C39074FF420674CEA1161E7
:101D300023F4206307EA02221A43C1610262286881
:101D4000C16921F00C01C1612868C169A268114311
:101D500028E02868D4E90027E168036A23F4805367
:101D60000362D0F81CC0036A2CF4407C4CEA0727BD
:101D70004FF6FF7C27F470470CEA013139434FF4EA
:101D8000204723F4204307EA02321A43C16102626A
:101D90002868C16921F44061C1612868C169A268ED
:101DA00041EA0221C16184E710B5040003D094F830
:101DB0003D0010B107E0012010BD002084F83C0078
:101DC000204600F022F8022084F83D00211D206802
:101DD00000F0D2FF012084F8480084F83E0084F827
:101DE0003F0084F8400084F8410084F8420084F801
:101DF000430084F8440084F8450084F8460084F8E1
:101E0000470084F83D00002010BD704730B50446FF
:101E1000002571B1042911D0082914D00C2917D03C
:101E2000102918D094F8430094F84720012817D1BE
:101E300014E094F83E0094F84420F7E794F83F004B
:101E400094F84520F2E794F8400094F84620EDE736
:101E500094F84100E8E794F84200E5E7012A01D050
:101E6000012030BD022079B1042916D008291DD0E7
:101E70000C2940D0102941D084F8430084F8470051
:101E80000C293ED0012534E084F83E0084F844005B
:101E90002068C26842F0020210E084F83F0084F833
:101EA00045002068C26842F0040207E084F8400060
:101EB00084F846002068C26842F00802C26001222D
:101EC000206800F08FFF11492068884205D0B0F1EA
:101ED000804F02D00E49884207D181680D4A1140D7
:101EE000062906D0B1F5803F03D0016841F0010119
:101EF0000160284630BD84F84100BFE784F8420005
:101F0000BCE72068C26842F01002D7E7002C01400D
:101F1000004001400700010070B5044600680169F7
:101F20004FF00005C943890715D4C168C943890723
:101F300011D4E91E016101202077206880698007A3
:101F4000204602D0FFF7A0FE04E000F0CDF82046C6
:101F500000F08FF9257720680169C943490717D434
:101F6000C168C943490713D46FF00401016102201D
:101F700020772068806910F4407F204602D0FFF768
:101F800083FE04E000F0B0F8204600F072F92577F7
:101F900020680169C943090716D4C168C943090704
:101FA00012D46FF008010161042020772068C06915
:101FB0008007204602D0FFF767FE04E000F094F8A7
:101FC000204600F056F9257720680169C943C90603
:101FD00017D4C168C943C90613D46FF01001016159
:101FE000082020772068C06910F4407F204602D086
:101FF000FFF74AFE04E000F077F8204600F039F9D8
:10200000257720680169C943C90708D1C168C94358
:10201000C90704D1891E0161204600F093F92068A8
:102020000169C943090609D4C168C943090605D431
:102030006FF0800101612046FFF7DFFC2068016935
:10204000C943C90509D4C168C943090605D46FF459
:10205000807101612046FFF7CFFC20680169C94308
:10206000490609D4C168C943490605D46FF0400147
:102070000161204600F07CF920680169C9438906A6
:102080000BD4C168C943890607D46FF020010161F0
:102090002046BDE87040FFF7B1BC70BD10B586B0FA
:1020A000044614216846FEF7E1F92068B0F1804F3C
:1020B00016D10C48C16C41F00101C164C06C694685
:1020C00000F00100059020200090022001900020E7
:1020D00002900390012004904FF09040FEF7B8FA70
:1020E00006B010BD00100240704770B5044690F86D
:1020F0003C0000260D4601280BD0012084F83C004E
:102100000C2A4AD007DC82B1042A20D0082A06D142
:1021100031E0022070BD102A53D0142A63D001266A
:10212000002084F83C00304670BD206800F07AFE44
:102130002068816941F0080181612068816921F08E
:1021400004018161206881692A69114311E02068D6
:1021500000F0A4FE2068816941F40061816120687B
:10216000816921F480618161206881692A6941EA7D
:1021700002218161D4E7206800F0CCFE2068C169AB
:1021800041F00801C1612068C16921F00401C16109
:102190002068C1692A69114311E0206800F0F4FE4B
:1021A0002068C16941F40061C1612068C16921F4FE
:1021B0008061C1612068C1692A6941EA0221C16167
:1021C000AEE7206800F010FF2068416D41F0080183
:1021D00041652068416D21F0040141652068416D31
:1021E0002A69114311E0206800F02CFF2068416D3E
:1021F00041F4006141652068416D21F480614165D1
:102200002068416D2A6941EA0221416588E710B5DD
:10221000040003D094F83D0010B107E0012010BD88
:10222000002084F83C00204600F022F8022084F8C8
:102230003D00211D206800F09FFD012084F848002A
:1022400084F83E0084F83F0084F8400084F84100A0
:1022500084F8420084F8430084F8440084F8450080
:1022600084F8460084F8470084F83D00002010BD43
:102270007047704710B50446022269B1042912D094
:10228000082917D00C291CD0102921D094F843001C
:10229000012824D0012010BD94F83E000128F9D176
:1022A00084F83E201DE094F83F000128F2D184F824
:1022B0003F2016E094F840000128EBD184F840203C
:1022C0000FE094F841000128E4D184F8412008E0AF
:1022D00094F842000128DDD184F8422001E084F81E
:1022E00043200122206800F07DFD12492068124A37
:1022F000884204D0904202D0104B984203D1436CE4
:1023000043F4004343642068884204D0B0F1804F16
:1023100001D0904207D18168094A1140062906D0B0
:10232000B1F5803F03D0016841F001010160002058
:1023300010BD0000002C014000400140004401405D
:102340000700010070470246002041B1042909D06E
:1023500008290AD00C2901D11068006C7047106858
:10236000406B70471068806B70471068C06B704797
:10237000704710B5040002D0A06F10B107E0012033
:1023800010BD002084F87400204600F025F82420B9
:10239000A0672068016821F001010160204600F07B
:1023A00079FF0128ECD0606A10B1204600F0DFFE12
:1023B0002068416821F4904141602068816821F0E3
:1023C0002A0181602068016841F001010160204616
:1023D000BDE8104000F02FBFF0B59BB004461421BB
:1023E00015A8FEF743F854216846FEF73FF81C494C
:1023F0002068884232D1022400266846099600945B
:10240000FEF7D8FD08B1FEF70EF91648816D41F4CC
:1024100000318165816D01F400311A91C16C41F088
:102420000101C164C06C15A900F001001A900420DC
:1024300081E8510003250720CDE918504FF090475F
:102440003846FEF705F9CDE917654FF400401995B8
:10245000CDE9150415A93846FEF7FAF81BB0F0BD12
:1024600000440040001002402DE9F8430446806F0C
:102470001F4616460D4620284FD1CDB1C6B194F85F
:102480007400012849D0012084F874004FF000083E
:10249000C4F880802120A067FEF7E8F9A4F8506016
:1024A0008146A4F85260A068B0F5805F03D004E0D4
:1024B0000120BDE8F883206928B12E465FF00005B1
:1024C00084F8748010E00026FAE78021204600F0AE
:1024D000CFFFB8B9C6B116F8010B21680885B4F86A
:1024E0005200401EA4F85200B4F852004B464FF080
:1024F000000200970028E8D14FF04001204600F08C
:10250000B7FF30B10320D4E735F8020BC0F3080061
:10251000E3E72020A0670020CBE70220C9E7FEE721
:102520000148FEF7FDB900006C01002001688A69CE
:10253000D243920701D400228A6200688169C943AC
:10254000C90703D0816941F0010181617047000032
:102550002DE9F047044600688A4617468169002540
:102560002E46C906A9464FF0200849D51021C16161
:1025700037E000BFBAF1FF3F33D0FEF777F9C11B58
:10258000514502D8BAF1000F2BD12068416894F868
:10259000422001F480418369DB431B041CD4B1F564
:1025A000804F19D0202A17D0416841F48041416002
:1025B000FEF75CF907460FE0FEF758F9C01B192833
:1025C0000AD9606C40F02000606484F8418084F88F
:1025D000429084F84090012520688069C0438006BD
:1025E000EAD420688069C043800602D5002DC1D09E
:1025F00003E015B92168C1F81C8046F004060125E6
:1026000021688869C20505D54FF4807246F001063D
:10261000CA610125410509D522684FF4806146F061
:102620000806D1610125800502D40AE0800507D59E
:1026300021684FF4007046F00206C861012500E0F1
:102640008DB12046FFF772FF54F8240B4168074A0A
:1026500011404160206A3043206284F81D8084F874
:102660001E9084F81C902846BDE8F08700E800FE24
:1026700010B5C1F3090141EA02410268029C194305
:102680002143506821F000414FF4806303EA545322
:10269000024C234398430843506010BDFF63FF037F
:1026A0002DE9F0411D4617460E460446DDF8188018
:1026B00008E0681C06D0FEF7D9F8A0EB0800A84295
:1026C0000BD855B12068806936EA000012D000208E
:1026D000B842EED00020BDE8F08154F8440F40F03D
:1026E000200044F80409202060700020A0702070B1
:1026F0000120F0E70120EBE72DE9F041202690468C
:102700000F460446002530E0424639462046FFF792
:102710001FFF10BB20688069C04380061ED420685C
:102720008169C943490701D4218D19BB8169C94316
:10273000C90604D41021C1610420606400E065640E
:102740002068C66120684168114A1140416084F8E0
:10275000416084F8425084F8405016E0FEF786F855
:10276000A0EB0800B84208D83FB120688069C04398
:102770004007C9D40020BDE8F08154F8440F40F070
:10278000200044F80409667025700120F3E700007A
:1027900000E800FE70B516460D4604460DE03246D0
:1027A00029462046FFF7D4FE08B1012070BDFEF790
:1027B0005DF8801BA84207D835B120688069C04306
:1027C0008006ECD4002070BD54F8440F40F0200087
:1027D00044F80409202060700020A0702070E4E715
:1027E00070B516460D4604460FE03246294620468F
:1027F000FFF7AEFE08B1012070BD681C05D0FEF7E2
:1028000035F8801BA84207D835B120688069C043DD
:102810008007EAD4002070BD54F8440F40F0200037
:1028200044F80409202060700020A0702070E2E7C6
:10283000F0B587B014216846FDF718FE1D48C16C3D
:1028400041F00401C164C16C01F004010591C16C47
:1028500041F00101C164C16C01F001010591C16C3D
:1028600041F00201C164C06C4FF0904600F00200DC
:102870000590002208213046FDF7F3FF0E4F00229D
:1028800028213846FDF7EDFF08200090012500249F
:10289000CDE90154694630460394FDF7D9FE28205E
:1028A0000090CDE90154694638460394FDF7D0FE07
:1028B00007B0F0BD0010024000040048124810B5F7
:1028C000104901601149416000210122C0E9021252
:1028D000016141618161C1610162FEF729F808B1BE
:1028E00072B6FEE700210848FDF7C6FF08B172B6D0
:1028F000FEE700210448FDF7EAFF002801D072B688
:10290000FEE710BD005400406C010020BB7C70004D
:1029100010B58CB000240A942348079408940994B5
:102920000594069404940094019402941D49039420
:1029300001601F21C0E901144FF6FF71C0E90314C3
:1029400044618461FFF792F808B172B6FEE74FF474
:102950008050079007A91448FFF726F908B172B60E
:10296000FEE71148FFF720FA08B172B6FEE70494BB
:10297000059404A90C480694FFF742F808B172B612
:10298000FEE70120CDE90040029400226946064896
:102990000394FFF77AF9002801D072B6FEE70CB075
:1029A00010BD0000002C0140C001002010B58EB009
:1029B00000240794089409940A940B940C941C2105
:1029C00068460D94FDF752FD1C484FF08041C0E968
:1029D00000146321C0E9024104618461FFF746F8F5
:1029E00008B172B6FEE74FF48050079007A913486C
:1029F000FFF7DAF808B172B6FEE71048FFF707FCF8
:102A000008B172B6FEE70B940BA90C480D94FEF7C3
:102A1000F7FF08B172B6FEE76020CDE9000402942A
:102A20000022694605480494FFF75FFB08B172B6BF
:102A3000FEE70248FFF732FB0EB010BD0C0200208B
:102A40000C4810B50A4901604FF4E13141600021A2
:102A500081600C22C160C0E904128161C161016220
:102A60004162FFF786FC002801D072B6FEE710BD78
:102A70000044004058020020FEE7FEE770470000D7
:102A80002DE9F041444C05468846E0680026810760
:102A900028680DD0E16801F00301814216D1A8B188
:102AA000E0686968C0F30210401C88420ED120E043
:102AB000012804D0022805D0032807D108E02168A6
:102AC000890701E021684905002907DB01265FE04D
:102AD0002168890302D421684903F5E7E1686A683F
:102AE0006FF00F0321F0730103EB02121143014356
:102AF000E160206820F080602060FDF7B7FE0746A7
:102B000005E000BFFDF7B2FEC01B022837D82068E1
:102B10000001F7D4B8F1000F18D0B8F1010F1DD0A3
:102B2000287D4FF07E41400801EB4060A96840EAF3
:102B300001202169194A114008432061206840F0B2
:102B400080602060FDF792FE07461AE0A868297BA6
:102B5000000240EAC1602169114AECE7288A114964
:102B6000400801EB4050A96840EA012021690E4A63
:102B7000E1E700BFFDF77AFEC01B022801D903265A
:102B800006E020680001F5D52069A96908432061A5
:102B90003046BDE8F081000000100240FF80FFF9E0
:102BA000FF80FF070000E0FFFF809FFFF8B51C4D8E
:102BB00006460024A86DC00002D5FEF7E3F90DE03B
:102BC000A86D40F08050A865A86D00F0805000907E
:102BD000FEF7D8F9A96D21F08051A965B0F5007F05
:102BE00004D0802E07D94FF003040AE0802E08D9C4
:102BF000A02E01D804E001D1022402E0702E00D101
:102C000001240848016821F00701214301600068A0
:102C100000F00700A04201D00120F8BD0020F8BD5F
:102C200000100240002002407047FEF7E7B80000A5
:102C300010B596B044216846FDF718FC142111A880
:102C4000FDF714FC4FF40070FEF768F908B172B696
:102C5000FEE7FEF79FF9184850F8901F21F0180181
:102C60000160142000900120029000246021069051
:102C7000CDE907410221CDE90A100C9010200D90FA
:102C80000720CDE90E0168461091FEF7F1FB08B16F
:102C900072B6FEE70F2011900320CDE912041494C0
:102CA000012111A81594FEF7CBFA08B172B6FEE720
:102CB000FEF778F916B010BD001002400248016816
:102CC00041F470010160704788ED00E070B5214D5E
:102CD000214C4FF0000128680028204629D0FFF73A
:102CE00032FB686021680A6A22F00A020A622168DF
:102CF0000A6A0A6200212960A968401A00F0C9FD29
:102D00009FED161B53EC112B00F0DAFD9FED151B08
:102D100053EC112B00F0D4FD00F08CFD0246E8606E
:102D200012A11448FDF71EFBBDE870400A48FFF7EA
:102D3000F3B8FFF708FBA8602068016A21F00A01D8
:102D400001622068016A41F00201016201202860ED
:102D5000EAE7000020000020C0010020006F81048D
:102D6000C58FA13F000000000000E03F25640D0A70
:102D700000000000DC02002070B50268164B4FF026
:102D80008046984201D0B04203D122F070044A68D4
:102D90002243124C124D984205D0B04203D0A042BB
:102DA00001D0A84203D122F44076CA6832434E696A
:102DB00022F08002324302608A68C2620A6882623C
:102DC000984203D0A04201D0A84201D10969016311
:102DD0000121416170BD0000002C01400040014014
:102DE0000044014010B501F01F030121046A99401D
:102DF0008C430462016A9A401143016210BD10B510
:102E0000846842EA032224F47F440A432243826016
:102E100010BD826822F070020A4342F0070181600F
:102E200070470000F0B5026A22F001020262056AF2
:102E300043688269154C25F0020522400C6822F097
:102E4000030214438A68134E2A43114D124FA842BD
:102E500003D0B04201D0B84206D122F0080CCA68B3
:102E600042EA0C0222F00402A84203D0B04201D090
:102E7000B84205D14D6923F440731D438B692B4340
:102E800043608461496841630262F0BD8FFFFEFFC9
:102E9000002C0140004001400044014030B5026A6E
:102EA00022F010020262046A42688369154D2B40C9
:102EB0000D6823F4407343EA052524F020038C6851
:102EC00043EA0413104CA04207D1CC6823F08003DE
:102ED00043EA041323F0400305E00C4CA04202D067
:102EE0000B4CA04207D14C6922F4406242EA8402B2
:102EF0008C6942EA840242608561496881630362A9
:102F000030BD0000FF8FFFFE002C0140004001405B
:102F10000044014030B5026A22F480720262046A01
:102F20004268C369144D2B400D6823F003031D4311
:102F300024F400738C6843EA0423104CA04207D1A8
:102F4000CC6823F4006343EA042323F4806305E0A0
:102F50000B4CA04202D00B4CA04207D14C6922F48A
:102F6000405242EA04128C6942EA04124260C5618E
:102F70004968C163036230BD8FFFFEFF002C014032
:102F8000004001400044014030B5026A22F4805202
:102F90000262046A4268C3690F4D24F400542B4056
:102FA0000D6823F4407343EA05238D6844EA053431
:102FB0000A4DA84205D00A4DA84202D0094DA842A8
:102FC00004D14D6922F4804242EA85124260C36115
:102FD00049680164046230BDFF8FFFFE002C014090
:102FE000004001400044014030B5026A22F48032C2
:102FF0000262046A4268436D0E4D2B400D681D430A
:1030000024F400330C8943EA04430B4CA04205D05E
:103010000A4CA04202D00A4CA04204D14C6922F4CE
:10302000803242EA04224260456549688165036254
:1030300030BD00008FFFFEFF002C0140004001402A
:103040000044014030B5026A22F480120262046A30
:103050004268436D0E4D24F400142B400D6843EA82
:1030600005230D8944EA05540A4DA84205D00A4DAE
:10307000A84202D0094DA84204D14D6922F4802211
:1030800042EA8522426043654968C165046230BDF9
:10309000FF8FFFFE002C0140004001400044014032
:1030A00010B5036A046A24F001040462846924F000
:1030B000F00444EA021423F00A020A438461026223
:1030C00010BD000070B5046A24F001040462846934
:1030D000056A0E4EB04205D0B0F1804F02D00C4EC2
:1030E000B04203D124F00304144301E044F001048E
:1030F0001A0724F0F00444EA126225F00A0301F0F2
:103100000A0119438261016270BD0000002C014078
:103110000040014010B5036A23F010030362836985
:10312000046A23F4704343EA023224F0A00343EA22
:1031300001118261016210BD30B5046A24F01004EF
:1031400004628469056A24F4407444EA022222F489
:1031500070444FF6FF7202EA03322243A02425F0A6
:10316000A00304EA011119438261016230BD90F8A5
:103170002410C90706D001684A68836A22F4003225
:103180001A434A6090F82410890706D501684A68F6
:10319000C36A22F480321A434A6090F82410490727
:1031A00006D501684A68036B22F480221A434A60FC
:1031B00090F82410090706D501684A68436B22F489
:1031C00000421A434A6090F82410C90606D50168E7
:1031D0008A68836B22F480521A438A6090F8241024
:1031E000890606D501688A68C36B22F400521A4327
:1031F0008A6090F82410490611D501684A68036C6A
:1032000022F480121A434A60016CB1F5801F06D186
:1032100001684A68436C22F4C0021A434A6090F87D
:103220002410090606D501684A68806C22F4002241
:1032300002434A607047F8B500260446C0F8806033
:10324000FDF714FB0546206800686FF07E47000715
:1032500008D52B4600224FF400112046009700F0BD
:1032600007F960B92068006840070AD52B4600229C
:103270004FF480012046009700F0FAF808B10320CF
:10328000F8BD2020A067E067266684F874600020FF
:10329000F8BD00002DE9F04104460168806822690C
:1032A000E66910436269002532431043694B0A689E
:1032B000694E324002430A6020684168E26821F4A6
:1032C0004051114341602168A069994201D0226AAE
:1032D00010438A6822F4306202438A605F4927689B
:1032E0005F488F420DD1D0F8880010F0030006D05F
:1032F000012838D0022834D0032821D135E001211B
:103300001FE058498F420BD1D0F8880010F00C0014
:1033100025D0042827D0082823D00C2810D124E059
:103320009F420DD1D0F8880010F4406017D0B0F55E
:10333000806F18D0B0F5006F13D0B0F5406F14D087
:103340001021494A00264FF400409F422FD171B10D
:1033500002290FD004290FD0082973D10FE00021D2
:10336000EFE70221EDE70421EBE70821E9E7FEF7AB
:1033700009F803E0104602E0FEF728F8F0B36268AF
:1033800002EB420181425DD8B0EB023F5AD8010EF8
:1033900003025008181871410023FCF76BFF334AF1
:1033A000A0F5407191424DD82168C8604BE0E369B7
:1033B0004FF6EF77834228D1092943D2DFE801F0A5
:1033C00005080B420D4242421000FDF7DBFF06E00C
:1033D000FDF7EAFF03E0104602E0FDF7F7FF68B1F2
:1033E0004100606801EB5001B1FBF0F0A0F1100169
:1033F000B94227D84FF6F071014000E023E0C0F356
:10340000420001432068C1601DE009291AD2DFE8AB
:1034100001F005080B190D1919191000FDF7B2FF7D
:1034200006E0FDF7C1FF03E0104602E0FDF7CEFF26
:1034300048B1616800EB5100B0FBF1F0A0F1100160
:10344000B94205D9012566662846A666BDE8F08121
:1034500080B2A9E700800040F369FFEF0038014027
:1034600000100240004400400024F400FFFC0F0064
:103470002DE9F0479A4617460E4604464FF00009DC
:103480004FF02008089D4AE0681C48D0FDF7EEF98F
:10349000A0EB0A00A8422AD84DB32068016849076A
:1034A0003DD5C069C043000539D421684FF40060A0
:1034B0000862206850E8001F21F4D07140E8001233
:1034C000002AF6D12068083050E8001F21F00101E1
:1034D00040E80012002AF5D1C4F87880C4F87C8056
:1034E000C4F8808084F874900320BDE8F0872168D8
:1034F00051E8000F20F4D07041E80002002AF6D114
:103500002068083050E8001F21F0010140E8001257
:10351000002AF5D1C4F87880C4F87C80E2E72068FE
:10352000C06936EA000004D00020B842ACD00020C8
:10353000DBE70120F9E7FEE70907090E002804DBB5
:1035400000F1E02080F80014704700F00F0000F157
:10355000E02080F8141D70472DED028BADF57E7DC7
:10356000FDF754FCFFF764FBFFF762F9FFF7D0F9B2
:10357000FFF766FAFFF71AFAFFF7A0F9002185486E
:10358000FEF778FE834C322021684863A4F14C009A
:10359000FEF7E2FA4FF09046002208213046FDF790
:1035A00060F94FF0FF330A22D021A4F1A000FDF70B
:1035B0001BFA58B9784F012508213846FDF749F91B
:1035C000FA20FDF733F86D1C0A2DF5DD11208DF87A
:1035D000F00312208DF8EC034FF47A7A514601A8DB
:1035E000FCF744FFDFF8B4B1B1469FED6D8A6D4F33
:1035F000ABF10408F7EE008A012208214E46484646
:10360000FDF72FF9634800254C3801684D620068CA
:10361000416A0929FCD3002208213046FDF721F92F
:103620005C4800214C38FEF7F1FB56465046FCF74B
:10363000FDFF3868401E032830D89BED000A5A4829
:1036400060EE080A90ED000AB8EE401A81EE200AFA
:1036500030EE680A88ED000ABCEEC00A216810EE60
:10366000100A886251A15748FCF77CFE55490A238D
:10367000642201F5A870FEF7F7FE524852A1C8383F
:103680003A68FCF76FFE4F490A23C839642201F5F6
:103690000670FEF7E9FE3046FCF7C8FF38680938C7
:1036A000042832D89BED050A3F4860EE080A90EDE9
:1036B000000AB8EE401A81EE200A30EE680A88ED62
:1036C000000ABCEEC00A216810EE100A88623D486C
:1036D00044A16438FCF746FE3A490A23643964225F
:1036E00001F5DA70FEF7C0FE364837A1C8383A68EF
:1036F000FCF738FE33490A23C839642201F5067005
:10370000FEF7B2FE3046FCF791FF206885622D4837
:103710000A250123FCAAD02164300095FDF790FA18
:10372000284801230DF2F132D12164300095FDF7D4
:10373000F1F924480123FBAAD02164300095FDF75C
:103740007FFA204801230DF2ED32D121643000953B
:10375000FDF7E0F99DF8F10300F07F029DF8ED031D
:1037600000F0C0008DF8ED03800900EBC00101EB13
:1037700000133868009023A101A8FCF7F3FD054869
:1037800033461A4601A94C30FEF76EFE3046FCF770
:103790004DFF31E70C020020000400480400002027
:1037A0000000C8422C0000203C000020506C6561E5
:1037B0007365206472696E6B207761746572210D88
:1037C0000A0000000801002043757272656E7420C3
:1037D00044697374616E63652069733A2025640DD2
:1037E0000A000000506C656173652066696C6C208E
:1037F00074686520776174657220626F74746C659B
:10380000210D0A0054656D70657261747572653AB8
:103810002025642E2564202C2043757272656E74F9
:103820002044697374616E63653A202564200D0A33
:103830000A0000004FEA41034FEA5353A3F58063A7
:10384000D3F11E03C8BFD3F1210C0CDD4FF00042B1
:1038500042EAC12242EA505232FA03FC8CEAE17C8D
:10386000ACEBE1707047102BC4BF0020704703F52C
:10387000787CBCF1FF3F04D06FF0004282EA210067
:10388000704770B500F0C6F8499224800020704758
:10389000F2E710F0004248BF4042B0FA80F310FA5D
:1038A00003F10AD0C3F11D0303F580634FEA4150D1
:1038B00002EB035202EBD12170474FF0000070473A
:1038C000DFF848C170B51CEA111E1EBF1CEA1315B3
:1038D0009EEA0C0F95EA0C0F00F06F8081EA03045A
:1038E00023EA4C134EEAD47E21EA4C1141F48011B4
:1038F00043F48013AE44A1FB024CA0FB0365AEF180
:103900007F7E361955EB0C05A1FB034C4CF10003EF
:10391000A0FB021C16EB0C06654153F100030942A3
:1039200018BF46F0010613F4007F0BD14FEA0331B4
:103930004FEA0530340341EA155140EA16506FF062
:1039400003020AE04FEAC3214FEAC520F40241EA2C
:10395000555140EA56506FF0020202EB2E4201EB45
:10396000025585EACE710AD05FEA440C18BF24F0F4
:10397000004450F1000041F1000120EAD47040F20F
:10398000FE7C624500D270BDA84214BF4FF0804457
:103990004FF04044002E08BF0024BEF1806FA8BF46
:1039A000A1F1C041BDE8704080F282804FF000007C
:1039B00001F1C04101F0004170479EEA0C0F0CEA92
:1039C000131518BF95EA0C0F06D04FF0000081EADE
:1039D000030E0EF0004170BD00F01CF88900013E9E
:1039E00000F007B800F009B84FEA430C5FEA5C5CEE
:1039F00008D081EA030100F05BB84FEA410C5FEAAE
:103A00005C5CF6D14FF00000014970470000FF07F1
:103A10000000F87F0EF1020E2EF0030E5EF8046B2C
:103A2000364205D4012A43EB030515F5001F12D8D1
:103A3000012841EB010C1CF5001F0CD80ED14FEAF8
:103A4000D17C15F5001F0CEB4C0C0CF1020C08BFDF
:103A50004CEBD37C04E04FF0080C01E04FEAD37C40
:103A60000CEB4C0526FA05F606F00706B6F1040C39
:103A700006D20EEB860CBDE870404CF0010C60479E
:103A8000DFE80CF0090B02024FF000414FF000009C
:103A9000A1F5002170BD19461046012851EB010423
:103AA00018BFD4F5001484BF002001F0004170BDA0
:103AB0000808A0F500114FEA310170474FF040703F
:103AC000E1EE100A70470000000000000000000056
:103AD0000102030406070809A0860100400D030047
:103AE000801A060000350C0040420F0080841E0042
:103AF00000093D0000127A000024F40000366E0137
:103B00000048E801006CDC02000000000102030430
:103B1000303B00080000002040000000C801000801
:103B2000703B00084000002060090000E40100082C
:103B30000000000000D002441FD5124400D02444ED
:103B4000719D2E445CFF434400005C4448F1764480
:103B50000000000000000000000000000000000065
:103B600001000000100000000000000000093D00FE
:040000050800018D61
:00000001FF
